{
    "contractName": "Administration",
    "abi": [
        {
            "inputs": [],
            "payable": false,
            "stateMutability": "nonpayable",
            "type": "constructor"
        },
        {
            "anonymous": false,
            "inputs": [
                {
                    "indexed": true,
                    "internalType": "address",
                    "name": "previousOwner",
                    "type": "address"
                },
                {
                    "indexed": true,
                    "internalType": "address",
                    "name": "newOwner",
                    "type": "address"
                }
            ],
            "name": "OwnershipTransferred",
            "type": "event"
        },
        {
            "constant": false,
            "inputs": [
                {
                    "internalType": "address",
                    "name": "newOwner",
                    "type": "address"
                }
            ],
            "name": "transferOwnership",
            "outputs": [],
            "payable": false,
            "stateMutability": "nonpayable",
            "type": "function"
        },
        {
            "constant": true,
            "inputs": [],
            "name": "whoIsTheAdmin",
            "outputs": [
                {
                    "internalType": "address",
                    "name": "Admin",
                    "type": "address"
                }
            ],
            "payable": false,
            "stateMutability": "view",
            "type": "function"
        }
    ],
    "bytecode": "608060405234801561001057600080fd5b50600080546001600160a01b0319163390811782556040519091907f8be0079c531659141344cd1fd0a4f28419497f9722a3daafe3b4186f6b6457e0908290a36102ad8061005f6000396000f3fe608060405234801561001057600080fd5b50600436106100365760003560e01c8063f2fde38b1461003b578063fd80643814610050575b600080fd5b61004e61004936600461014e565b61006e565b005b6100586100d3565b604051610065919061020e565b60405180910390f35b6000546001600160a01b031633146100a15760405162461bcd60e51b81526004016100989061022c565b60405180910390fd5b6001600160a01b0381166100c75760405162461bcd60e51b81526004016100989061021c565b6100d0816100e2565b50565b6000546001600160a01b031690565b600080546040516001600160a01b03808516939216917f8be0079c531659141344cd1fd0a4f28419497f9722a3daafe3b4186f6b6457e091a3600080546001600160a01b0319166001600160a01b0392909216919091179055565b803561014881610256565b92915050565b60006020828403121561016057600080fd5b600061016c848461013d565b949350505050565b61017d81610245565b82525050565b600061019060268361023c565b7f4f776e61626c653a206e6577206f776e657220697320746865207a65726f206181526564647265737360d01b602082015260400192915050565b60006101d860218361023c565b7f4f6e6c79207468652041646d696e69737461746f722063616e20646f207468698152607360f81b602082015260400192915050565b602081016101488284610174565b6020808252810161014881610183565b60208082528101610148816101cb565b90815260200190565b60006001600160a01b038216610148565b61025f81610245565b81146100d057600080fdfea365627a7a72315820b348106d11596ceba0a504f687192af811add3f58deece2fd50e6287a890a70f6c6578706572696d656e74616cf564736f6c634300050e0040",
    "sourcePath": "c:/Users/jNeustaedter/Documents/dao4c/solidity/contracts/Administration.sol",
    "compiler": {
        "name": "solc",
        "version": "0.5.14+commit.01f1aaa4"
    },
    "functionHashes": {
        "transferOwnership(address)": "f2fde38b",
        "whoIsTheAdmin()": "fd806438"
    },
    "gasEstimates": {
        "creation": {
            "codeDepositCost": "137000",
            "executionCost": "22551",
            "totalCost": "159551"
        },
        "external": {
            "transferOwnership(address)": "infinite",
            "whoIsTheAdmin()": "infinite"
        },
        "internal": {
            "_transferOwnership(address)": "23241"
        }
    }
}