{
    "contractName": "OpenVotingProcedure",
    "abi": [
        {
            "inputs": [
                {
                    "internalType": "string",
                    "name": "_title",
                    "type": "string"
                },
                {
                    "internalType": "string",
                    "name": "_description",
                    "type": "string"
                },
                {
                    "internalType": "string[]",
                    "name": "_votingOptions",
                    "type": "string[]"
                },
                {
                    "internalType": "address",
                    "name": "_administrator",
                    "type": "address"
                },
                {
                    "internalType": "address[]",
                    "name": "_eligibleList",
                    "type": "address[]"
                }
            ],
            "payable": false,
            "stateMutability": "nonpayable",
            "type": "constructor"
        },
        {
            "constant": true,
            "inputs": [],
            "name": "administrator",
            "outputs": [
                {
                    "internalType": "address",
                    "name": "",
                    "type": "address"
                }
            ],
            "payable": false,
            "stateMutability": "view",
            "type": "function"
        },
        {
            "constant": false,
            "inputs": [],
            "name": "closeVoting",
            "outputs": [],
            "payable": false,
            "stateMutability": "nonpayable",
            "type": "function"
        },
        {
            "constant": true,
            "inputs": [],
            "name": "description",
            "outputs": [
                {
                    "internalType": "string",
                    "name": "",
                    "type": "string"
                }
            ],
            "payable": false,
            "stateMutability": "view",
            "type": "function"
        },
        {
            "constant": true,
            "inputs": [],
            "name": "eligibleCount",
            "outputs": [
                {
                    "internalType": "uint256",
                    "name": "",
                    "type": "uint256"
                }
            ],
            "payable": false,
            "stateMutability": "view",
            "type": "function"
        },
        {
            "constant": true,
            "inputs": [],
            "name": "getEligibleVoters",
            "outputs": [
                {
                    "internalType": "address[]",
                    "name": "",
                    "type": "address[]"
                }
            ],
            "payable": false,
            "stateMutability": "view",
            "type": "function"
        },
        {
            "constant": true,
            "inputs": [],
            "name": "getVotes",
            "outputs": [
                {
                    "internalType": "string[]",
                    "name": "",
                    "type": "string[]"
                }
            ],
            "payable": false,
            "stateMutability": "view",
            "type": "function"
        },
        {
            "constant": true,
            "inputs": [],
            "name": "getVotingOptions",
            "outputs": [
                {
                    "internalType": "string[]",
                    "name": "",
                    "type": "string[]"
                }
            ],
            "payable": false,
            "stateMutability": "view",
            "type": "function"
        },
        {
            "constant": true,
            "inputs": [
                {
                    "internalType": "address",
                    "name": "addr",
                    "type": "address"
                }
            ],
            "name": "hasAlreadyVoted",
            "outputs": [
                {
                    "internalType": "bool",
                    "name": "",
                    "type": "bool"
                }
            ],
            "payable": false,
            "stateMutability": "view",
            "type": "function"
        },
        {
            "constant": true,
            "inputs": [],
            "name": "isAdmin",
            "outputs": [
                {
                    "internalType": "bool",
                    "name": "",
                    "type": "bool"
                }
            ],
            "payable": false,
            "stateMutability": "view",
            "type": "function"
        },
        {
            "constant": true,
            "inputs": [
                {
                    "internalType": "address",
                    "name": "addr",
                    "type": "address"
                }
            ],
            "name": "isEligible",
            "outputs": [
                {
                    "internalType": "bool",
                    "name": "",
                    "type": "bool"
                }
            ],
            "payable": false,
            "stateMutability": "view",
            "type": "function"
        },
        {
            "constant": false,
            "inputs": [],
            "name": "openVoting",
            "outputs": [],
            "payable": false,
            "stateMutability": "nonpayable",
            "type": "function"
        },
        {
            "constant": true,
            "inputs": [],
            "name": "stage",
            "outputs": [
                {
                    "internalType": "enum OpenVotingProcedure.VotingStage",
                    "name": "",
                    "type": "uint8"
                }
            ],
            "payable": false,
            "stateMutability": "view",
            "type": "function"
        },
        {
            "constant": true,
            "inputs": [],
            "name": "title",
            "outputs": [
                {
                    "internalType": "string",
                    "name": "",
                    "type": "string"
                }
            ],
            "payable": false,
            "stateMutability": "view",
            "type": "function"
        },
        {
            "constant": false,
            "inputs": [
                {
                    "internalType": "string",
                    "name": "option",
                    "type": "string"
                }
            ],
            "name": "vote",
            "outputs": [],
            "payable": false,
            "stateMutability": "nonpayable",
            "type": "function"
        },
        {
            "constant": true,
            "inputs": [
                {
                    "internalType": "uint256",
                    "name": "",
                    "type": "uint256"
                }
            ],
            "name": "votes",
            "outputs": [
                {
                    "internalType": "string",
                    "name": "",
                    "type": "string"
                }
            ],
            "payable": false,
            "stateMutability": "view",
            "type": "function"
        },
        {
            "constant": true,
            "inputs": [],
            "name": "votingDirectory",
            "outputs": [
                {
                    "internalType": "contract VotingDirectory",
                    "name": "",
                    "type": "address"
                }
            ],
            "payable": false,
            "stateMutability": "view",
            "type": "function"
        },
        {
            "constant": true,
            "inputs": [
                {
                    "internalType": "uint256",
                    "name": "",
                    "type": "uint256"
                }
            ],
            "name": "votingOptions",
            "outputs": [
                {
                    "internalType": "string",
                    "name": "",
                    "type": "string"
                }
            ],
            "payable": false,
            "stateMutability": "view",
            "type": "function"
        }
    ],
    "bytecode": "60806040523480156200001157600080fd5b50604051620013f5380380620013f5833981016040819052620000349162000493565b60008054610100600160a81b031916336101000217905584516200006090600290602088019062000137565b5083516200007690600190602087019062000137565b5082516200008c906005906020860190620001bc565b508051620000a29060039060208401906200021c565b5060005b600354811015620001025760016004600060038481548110620000c557fe5b6000918252602080832091909101546001600160a01b031683528201929092526040019020805460ff1916911515919091179055600101620000a6565b5050600680546001600160a01b0319166001600160a01b039290921691909117905550506000805460ff19169055506200063e565b828054600181600116156101000203166002900490600052602060002090601f016020900481019282601f106200017a57805160ff1916838001178555620001aa565b82800160010185558215620001aa579182015b82811115620001aa5782518255916020019190600101906200018d565b50620001b892915062000282565b5090565b8280548282559060005260206000209081019282156200020e579160200282015b828111156200020e5782518051620001fd91849160209091019062000137565b5091602001919060010190620001dd565b50620001b8929150620002a2565b82805482825590600052602060002090810192821562000274579160200282015b828111156200027457825182546001600160a01b0319166001600160a01b039091161782556020909201916001909101906200023d565b50620001b8929150620002ca565b6200029f91905b80821115620001b8576000815560010162000289565b90565b6200029f91905b80821115620001b8576000620002c08282620002f1565b50600101620002a9565b6200029f91905b80821115620001b85780546001600160a01b0319168155600101620002d1565b50805460018160011615610100020316600290046000825580601f1062000319575062000339565b601f01602090049060005260206000209081019062000339919062000282565b50565b8051620003498162000627565b92915050565b600082601f8301126200036157600080fd5b815162000378620003728262000599565b62000572565b915081818352602084019350602081019050838560208402820111156200039e57600080fd5b60005b83811015620003ce5781620003b788826200033c565b8452506020928301929190910190600101620003a1565b5050505092915050565b600082601f830112620003ea57600080fd5b8151620003fb620003728262000599565b81815260209384019390925082018360005b83811015620003ce57815186016200042688826200043d565b84525060209283019291909101906001016200040d565b600082601f8301126200044f57600080fd5b8151620004606200037282620005ba565b915080825260208301602083018583830111156200047d57600080fd5b6200048a838284620005f4565b50505092915050565b600080600080600060a08688031215620004ac57600080fd5b85516001600160401b03811115620004c357600080fd5b620004d1888289016200043d565b95505060208601516001600160401b03811115620004ee57600080fd5b620004fc888289016200043d565b94505060408601516001600160401b038111156200051957600080fd5b6200052788828901620003d8565b93505060606200053a888289016200033c565b92505060808601516001600160401b038111156200055757600080fd5b62000565888289016200034f565b9150509295509295909350565b6040518181016001600160401b03811182821017156200059157600080fd5b604052919050565b60006001600160401b03821115620005b057600080fd5b5060209081020190565b60006001600160401b03821115620005d157600080fd5b506020601f91909101601f19160190565b60006001600160a01b03821662000349565b60005b8381101562000611578181015183820152602001620005f7565b8381111562000621576000848401525b50505050565b6200063281620005e2565b81146200033957600080fd5b610da7806200064e6000396000f3fe608060405234801561001057600080fd5b506004361061010b5760003560e01c806389036771116100a2578063c040e6b811610071578063c040e6b8146101ea578063c631b292146101ff578063dff67f6b14610207578063f53d0a8e1461021a578063fc36e15b1461022f5761010b565b806389036771146101ae578063a01647e6146101c3578063affc0670146101d8578063b6db75a0146101e25761010b565b806366e305fd116100de57806366e305fd1461016b5780637284e4161461018b57806383859cf7146101935780638574d5b01461019b5761010b565b80630dc96015146101105780634a79d50c1461012e5780635df8133014610143578063630cb4dc14610156575b600080fd5b610118610242565b6040516101259190610bbc565b60405180910390f35b61013661031b565b6040516101259190610bf7565b610136610151366004610939565b6103a6565b61015e610419565b6040516101259190610c48565b61017e6101793660046108de565b61041f565b6040516101259190610bcd565b610136610441565b61011861049b565b61017e6101a93660046108de565b61056a565b6101b6610588565b6040516101259190610bdb565b6101cb61059c565b6040516101259190610bab565b6101e06105fe565b005b61017e610679565b6101f261068a565b6040516101259190610be9565b6101e0610693565b610136610215366004610939565b610702565b61022261070f565b6040516101259190610b9d565b6101e061023d366004610904565b61071e565b60606007805480602002602001604051908101604052809291908181526020016000905b828210156103115760008481526020908190208301805460408051601f60026000196101006001871615020190941693909304928301859004850281018501909152818152928301828280156102fd5780601f106102d2576101008083540402835291602001916102fd565b820191906000526020600020905b8154815290600101906020018083116102e057829003601f168201915b505050505081526020019060010190610266565b5050505090505b90565b6002805460408051602060018416156101000260001901909316849004601f8101849004840282018401909252818152929183018282801561039e5780601f106103735761010080835404028352916020019161039e565b820191906000526020600020905b81548152906001019060200180831161038157829003601f168201915b505050505081565b600781815481106103b357fe5b600091825260209182902001805460408051601f600260001961010060018716150201909416939093049283018590048502810185019091528181529350909183018282801561039e5780601f106103735761010080835404028352916020019161039e565b60035490565b6001600160a01b03811660009081526004602052604090205460ff165b919050565b60018054604080516020600284861615610100026000190190941693909304601f8101849004840282018401909252818152929183018282801561039e5780601f106103735761010080835404028352916020019161039e565b60606005805480602002602001604051908101604052809291908181526020016000905b828210156103115760008481526020908190208301805460408051601f60026000196101006001871615020190941693909304928301859004850281018501909152818152928301828280156105565780601f1061052b57610100808354040283529160200191610556565b820191906000526020600020905b81548152906001019060200180831161053957829003601f168201915b5050505050815260200190600101906104bf565b6001600160a01b031660009081526008602052604090205460ff1690565b60005461010090046001600160a01b031681565b606060038054806020026020016040519081016040528092919081815260200182805480156105f457602002820191906000526020600020905b81546001600160a01b031681526001909101906020018083116105d6575b5050505050905090565b6006546001600160a01b031633146106315760405162461bcd60e51b815260040161062890610c38565b60405180910390fd5b60008060005460ff16600381111561064557fe5b146106625760405162461bcd60e51b815260040161062890610c08565b600080546001919060ff191682805b021790555050565b6006546001600160a01b0316331490565b60005460ff1681565b6006546001600160a01b031633146106bd5760405162461bcd60e51b815260040161062890610c38565b60018060005460ff1660038111156106d157fe5b146106ee5760405162461bcd60e51b815260040161062890610c08565b600080546002919060ff1916600183610671565b600581815481106103b357fe5b6006546001600160a01b031681565b3360009081526008602052604090205460ff161561074e5760405162461bcd60e51b815260040161062890610c18565b6107573361041f565b6107735760405162461bcd60e51b815260040161062890610c28565b600780546001810180835560009290925282516107b7917fa66cc928b5edb82af9bd49922954155ab7b0942694bea4ce44661d9a8736c688019060208501906107d6565b5050336000908152600860205260409020805460ff1916600117905550565b828054600181600116156101000203166002900490600052602060002090601f016020900481019282601f1061081757805160ff1916838001178555610844565b82800160010185558215610844579182015b82811115610844578251825591602001919060010190610829565b50610850929150610854565b5090565b61031891905b80821115610850576000815560010161085a565b803561087981610d47565b92915050565b600082601f83011261089057600080fd5b81356108a361089e82610c7d565b610c56565b915080825260208301602083018583830111156108bf57600080fd5b6108ca838284610cf4565b50505092915050565b803561087981610d5b565b6000602082840312156108f057600080fd5b60006108fc848461086e565b949350505050565b60006020828403121561091657600080fd5b813567ffffffffffffffff81111561092d57600080fd5b6108fc8482850161087f565b60006020828403121561094b57600080fd5b60006108fc84846108d3565b6000610963838361097e565b505060200190565b60006109778383610a6f565b9392505050565b61098781610cb8565b82525050565b600061099882610cab565b6109a28185610caf565b93506109ad83610ca5565b8060005b838110156109db5781516109c58882610957565b97506109d083610ca5565b9250506001016109b1565b509495945050505050565b60006109f182610cab565b6109fb8185610caf565b935083602082028501610a0d85610ca5565b8060005b85811015610a475784840389528151610a2a858261096b565b9450610a3583610ca5565b60209a909a0199925050600101610a11565b5091979650505050505050565b61098781610cc3565b61098781610cde565b61098781610ce9565b6000610a7a82610cab565b610a848185610caf565b9350610a94818560208601610d00565b610a9d81610d30565b9093019392505050565b6000610ab4602883610caf565b7f4e6f7420616c6c6f776564206174207468652063757272656e7420766f74696e815267339039ba30b3b29760c11b602082015260400192915050565b6000610afe600d83610caf565b6c105b1c9958591e48159bdd1959609a1b815260200192915050565b6000610b27601483610caf565b734e6f7420456c696769626c6520746f20566f746560601b815260200192915050565b6000610b57602883610caf565b7f4d6179206f6e6c792062652063616c6c6564206279207468652061646d696e6981526739ba3930ba37b91760c11b602082015260400192915050565b61098781610318565b60208101610879828461097e565b60208082528101610977818461098d565b6020808252810161097781846109e6565b602081016108798284610a54565b602081016108798284610a5d565b602081016108798284610a66565b602080825281016109778184610a6f565b6020808252810161087981610aa7565b6020808252810161087981610af1565b6020808252810161087981610b1a565b6020808252810161087981610b4a565b602081016108798284610b94565b60405181810167ffffffffffffffff81118282101715610c7557600080fd5b604052919050565b600067ffffffffffffffff821115610c9457600080fd5b506020601f91909101601f19160190565b60200190565b5190565b90815260200190565b600061087982610cd2565b151590565b8061043c81610d3a565b6001600160a01b031690565b600061087982610cb8565b600061087982610cc8565b82818337506000910152565b60005b83811015610d1b578181015183820152602001610d03565b83811115610d2a576000848401525b50505050565b601f01601f191690565b60048110610d4457fe5b50565b610d5081610cb8565b8114610d4457600080fd5b610d508161031856fea365627a7a7231582013ad5bd8d98e8c79f04fcbb3bcb3ab6d3e31518789a598ad84feb6085160c7156c6578706572696d656e74616cf564736f6c634300050e0040",
    "sourcePath": "c:/Users/bstrasser/Documents/blockchain/DAO/solidity/contracts/OpenVotingProcedure.sol",
    "compiler": {
        "name": "solc",
        "version": "0.5.14+commit.01f1aaa4"
    },
    "functionHashes": {
        "administrator()": "f53d0a8e",
        "closeVoting()": "c631b292",
        "description()": "7284e416",
        "eligibleCount()": "630cb4dc",
        "getEligibleVoters()": "a01647e6",
        "getVotes()": "0dc96015",
        "getVotingOptions()": "83859cf7",
        "hasAlreadyVoted(address)": "8574d5b0",
        "isAdmin()": "b6db75a0",
        "isEligible(address)": "66e305fd",
        "openVoting()": "affc0670",
        "stage()": "c040e6b8",
        "title()": "4a79d50c",
        "vote(string)": "fc36e15b",
        "votes(uint256)": "5df81330",
        "votingDirectory()": "89036771",
        "votingOptions(uint256)": "dff67f6b"
    },
    "gasEstimates": {
        "creation": {
            "codeDepositCost": "699000",
            "executionCost": "infinite",
            "totalCost": "infinite"
        },
        "external": {
            "administrator()": "infinite",
            "closeVoting()": "22743",
            "description()": "infinite",
            "eligibleCount()": "1189",
            "getEligibleVoters()": "infinite",
            "getVotes()": "infinite",
            "getVotingOptions()": "infinite",
            "hasAlreadyVoted(address)": "infinite",
            "isAdmin()": "1217",
            "isEligible(address)": "infinite",
            "openVoting()": "22755",
            "stage()": "infinite",
            "title()": "infinite",
            "vote(string)": "infinite",
            "votes(uint256)": "infinite",
            "votingDirectory()": "infinite",
            "votingOptions(uint256)": "infinite"
        }
    }
}