{
    "contractName": "RelayRegistry",
    "abi": [
        {
            "constant": false,
            "inputs": [],
            "name": "deleteEntity",
            "outputs": [
                {
                    "internalType": "bool",
                    "name": "success",
                    "type": "bool"
                }
            ],
            "payable": false,
            "stateMutability": "nonpayable",
            "type": "function"
        },
        {
            "constant": true,
            "inputs": [
                {
                    "internalType": "uint256",
                    "name": "",
                    "type": "uint256"
                }
            ],
            "name": "entityList",
            "outputs": [
                {
                    "internalType": "address",
                    "name": "",
                    "type": "address"
                }
            ],
            "payable": false,
            "stateMutability": "view",
            "type": "function"
        },
        {
            "constant": true,
            "inputs": [
                {
                    "internalType": "address",
                    "name": "",
                    "type": "address"
                }
            ],
            "name": "entityStructs",
            "outputs": [
                {
                    "internalType": "string",
                    "name": "entityData",
                    "type": "string"
                },
                {
                    "internalType": "uint256",
                    "name": "listPointer",
                    "type": "uint256"
                }
            ],
            "payable": false,
            "stateMutability": "view",
            "type": "function"
        },
        {
            "constant": true,
            "inputs": [],
            "name": "getEntityCount",
            "outputs": [
                {
                    "internalType": "uint256",
                    "name": "entityCount",
                    "type": "uint256"
                }
            ],
            "payable": false,
            "stateMutability": "view",
            "type": "function"
        },
        {
            "constant": true,
            "inputs": [],
            "name": "getEntityData",
            "outputs": [
                {
                    "internalType": "string[]",
                    "name": "",
                    "type": "string[]"
                }
            ],
            "payable": false,
            "stateMutability": "view",
            "type": "function"
        },
        {
            "constant": true,
            "inputs": [
                {
                    "internalType": "address",
                    "name": "entityAddress",
                    "type": "address"
                }
            ],
            "name": "isEntity",
            "outputs": [
                {
                    "internalType": "bool",
                    "name": "isIndeed",
                    "type": "bool"
                }
            ],
            "payable": false,
            "stateMutability": "view",
            "type": "function"
        },
        {
            "constant": false,
            "inputs": [
                {
                    "internalType": "string",
                    "name": "entityData",
                    "type": "string"
                }
            ],
            "name": "newEntity",
            "outputs": [
                {
                    "internalType": "bool",
                    "name": "success",
                    "type": "bool"
                }
            ],
            "payable": true,
            "stateMutability": "payable",
            "type": "function"
        },
        {
            "constant": false,
            "inputs": [
                {
                    "internalType": "string",
                    "name": "entityData",
                    "type": "string"
                }
            ],
            "name": "updateEntity",
            "outputs": [
                {
                    "internalType": "bool",
                    "name": "success",
                    "type": "bool"
                }
            ],
            "payable": false,
            "stateMutability": "nonpayable",
            "type": "function"
        }
    ],
    "bytecode": "6080604052670de0b6b3a764000060005534801561001c57600080fd5b506109fe8061002c6000396000f3fe60806040526004361061007b5760003560e01c80634dd448bf1161004e5780634dd448bf1461010b57806352c2c9e9146101395780635d1b45b5146101595780636695a65b1461017b5761007b565b806301dbe7b81461008057806314887c58146100a9578063404cbffb146100c95780634b29f5ab146100f6575b600080fd5b61009361008e36600461074f565b61019d565b6040516100a0919061089b565b60405180910390f35b3480156100b557600080fd5b506100936100c4366004610729565b610254565b3480156100d557600080fd5b506100e96100e4366004610784565b6102ae565b6040516100a0919061087c565b34801561010257600080fd5b506100936102d5565b34801561011757600080fd5b5061012b610126366004610729565b6103d7565b6040516100a09291906108a9565b34801561014557600080fd5b5061009361015436600461074f565b610479565b34801561016557600080fd5b5061016e6104c1565b6040516100a091906108c9565b34801561018757600080fd5b506101906104c7565b6040516100a0919061088a565b6000336101a981610254565b156101b357600080fd5b60005434146101c157600080fd5b6001600160a01b038116600090815260016020908152604090912084516101ea928601906105f8565b506002805460018181019092557f405787fa12a823e0f2b7631cc41b3ba8828b3321ca811111fa75cd3aa3bb5ace810180546001600160a01b039094166001600160a01b03199094168417905560009283526020829052604090922081019190915590505b919050565b6002546000906102665750600061024f565b6001600160a01b0382166000818152600160208190526040909120015460028054909190811061029257fe5b6000918252602090912001546001600160a01b03161492915050565b600281815481106102bb57fe5b6000918252602090912001546001600160a01b0316905081565b6000336102e181610254565b6102ea57600080fd5b6001600160a01b03811660009081526001602081905260408220015460028054919291600019810190811061031b57fe5b600091825260209091200154600280546001600160a01b03909216925082918490811061034457fe5b600091825260208083209190910180546001600160a01b0319166001600160a01b03948516179055918316815260019182905260409020018290556002805490610392906000198301610676565b50600080546040516001600160a01b0386169282156108fc02929190818181858888f193505050501580156103cb573d6000803e3d6000fd5b50600193505050505b90565b60016020818152600092835260409283902080548451600294821615610100026000190190911693909304601f81018390048302840183019094528383529283918301828280156104695780601f1061043e57610100808354040283529160200191610469565b820191906000526020600020905b81548152906001019060200180831161044c57829003601f168201915b5050505050908060010154905082565b60003361048581610254565b61048e57600080fd5b6001600160a01b038116600090815260016020908152604090912084516104b7928601906105f8565b5060019392505050565b60025490565b60608060028054905060405190808252806020026020018201604052801561050357816020015b60608152602001906001900390816104ee5790505b50905060005b6002548110156105f257600160006002838154811061052457fe5b6000918252602080832091909101546001600160a01b0316835282810193909352604091820190208054825160026101006001841615026000190190921691909104601f8101859004850282018501909352828152929091908301828280156105ce5780601f106105a3576101008083540402835291602001916105ce565b820191906000526020600020905b8154815290600101906020018083116105b157829003601f168201915b50505050508282815181106105df57fe5b6020908102919091010152600101610509565b50905090565b828054600181600116156101000203166002900490600052602060002090601f016020900481019282601f1061063957805160ff1916838001178555610666565b82800160010185558215610666579182015b8281111561066657825182559160200191906001019061064b565b5061067292915061069f565b5090565b81548183558181111561069a5760008381526020902061069a91810190830161069f565b505050565b6103d491905b8082111561067257600081556001016106a5565b80356106c48161099b565b92915050565b600082601f8301126106db57600080fd5b81356106ee6106e9826108fe565b6108d7565b9150808252602083016020830185838301111561070a57600080fd5b610715838284610955565b50505092915050565b80356106c4816109b2565b60006020828403121561073b57600080fd5b600061074784846106b9565b949350505050565b60006020828403121561076157600080fd5b813567ffffffffffffffff81111561077857600080fd5b610747848285016106ca565b60006020828403121561079657600080fd5b6000610747848461071e565b60006107ae838361083b565b9392505050565b6107be81610939565b82525050565b60006107cf8261092c565b6107d98185610930565b9350836020820285016107eb85610926565b8060005b85811015610825578484038952815161080885826107a2565b945061081383610926565b60209a909a01999250506001016107ef565b5091979650505050505050565b6107be81610944565b60006108468261092c565b6108508185610930565b9350610860818560208601610961565b61086981610991565b9093019392505050565b6107be816103d4565b602081016106c482846107b5565b602080825281016107ae81846107c4565b602081016106c48284610832565b604080825281016108ba818561083b565b90506107ae6020830184610873565b602081016106c48284610873565b60405181810167ffffffffffffffff811182821017156108f657600080fd5b604052919050565b600067ffffffffffffffff82111561091557600080fd5b506020601f91909101601f19160190565b60200190565b5190565b90815260200190565b60006106c482610949565b151590565b6001600160a01b031690565b82818337506000910152565b60005b8381101561097c578181015183820152602001610964565b8381111561098b576000848401525b50505050565b601f01601f191690565b6109a481610939565b81146109af57600080fd5b50565b6109a4816103d456fea365627a7a7231582066d36174ce2bfa965b856a7a05d5d51602ad73acdce979e87cf1dcf9eb487d946c6578706572696d656e74616cf564736f6c634300050e0040",
    "sourcePath": "c:/Users/bstrasser/Documents/blockchain/DAO/solidity/contracts/RelayRegistry.sol",
    "compiler": {
        "name": "solc",
        "version": "0.5.14+commit.01f1aaa4"
    },
    "functionHashes": {
        "deleteEntity()": "4b29f5ab",
        "entityList(uint256)": "404cbffb",
        "entityStructs(address)": "4dd448bf",
        "getEntityCount()": "5d1b45b5",
        "getEntityData()": "6695a65b",
        "isEntity(address)": "14887c58",
        "newEntity(string)": "01dbe7b8",
        "updateEntity(string)": "52c2c9e9"
    },
    "gasEstimates": {
        "creation": {
            "codeDepositCost": "511600",
            "executionCost": "20549",
            "totalCost": "532149"
        },
        "external": {
            "deleteEntity()": "infinite",
            "entityList(uint256)": "infinite",
            "entityStructs(address)": "infinite",
            "getEntityCount()": "1143",
            "getEntityData()": "infinite",
            "isEntity(address)": "infinite",
            "newEntity(string)": "infinite",
            "updateEntity(string)": "infinite"
        }
    }
}