{
    "contractName": "VotingDirectory",
    "abi": [
        {
            "inputs": [],
            "payable": false,
            "stateMutability": "nonpayable",
            "type": "constructor"
        },
        {
            "constant": false,
            "inputs": [
                {
                    "internalType": "string",
                    "name": "_title",
                    "type": "string"
                },
                {
                    "internalType": "string",
                    "name": "_description",
                    "type": "string"
                },
                {
                    "internalType": "string[]",
                    "name": "_votingOptions",
                    "type": "string[]"
                },
                {
                    "internalType": "bool",
                    "name": "secret",
                    "type": "bool"
                }
            ],
            "name": "deployNewVotingProcedure",
            "outputs": [],
            "payable": false,
            "stateMutability": "nonpayable",
            "type": "function"
        },
        {
            "constant": true,
            "inputs": [],
            "name": "getLeaves",
            "outputs": [
                {
                    "internalType": "bytes32[]",
                    "name": "",
                    "type": "bytes32[]"
                }
            ],
            "payable": false,
            "stateMutability": "view",
            "type": "function"
        },
        {
            "constant": true,
            "inputs": [],
            "name": "getMemberCount",
            "outputs": [
                {
                    "internalType": "uint256",
                    "name": "entityCount",
                    "type": "uint256"
                }
            ],
            "payable": false,
            "stateMutability": "view",
            "type": "function"
        },
        {
            "constant": true,
            "inputs": [],
            "name": "getOpenVotingProcedures",
            "outputs": [
                {
                    "internalType": "contract OpenVotingProcedure[]",
                    "name": "",
                    "type": "address[]"
                }
            ],
            "payable": false,
            "stateMutability": "view",
            "type": "function"
        },
        {
            "constant": true,
            "inputs": [],
            "name": "getVotingProcedures",
            "outputs": [
                {
                    "internalType": "contract VotingProcedure[]",
                    "name": "",
                    "type": "address[]"
                }
            ],
            "payable": false,
            "stateMutability": "view",
            "type": "function"
        },
        {
            "constant": true,
            "inputs": [
                {
                    "internalType": "address",
                    "name": "entityAddress",
                    "type": "address"
                }
            ],
            "name": "isMember",
            "outputs": [
                {
                    "internalType": "bool",
                    "name": "isIndeed",
                    "type": "bool"
                }
            ],
            "payable": false,
            "stateMutability": "view",
            "type": "function"
        },
        {
            "constant": true,
            "inputs": [],
            "name": "isMember",
            "outputs": [
                {
                    "internalType": "bool",
                    "name": "isIndeed",
                    "type": "bool"
                }
            ],
            "payable": false,
            "stateMutability": "view",
            "type": "function"
        },
        {
            "constant": true,
            "inputs": [],
            "name": "isRegistered",
            "outputs": [
                {
                    "internalType": "bool",
                    "name": "isIndeed",
                    "type": "bool"
                }
            ],
            "payable": false,
            "stateMutability": "view",
            "type": "function"
        },
        {
            "constant": true,
            "inputs": [
                {
                    "internalType": "address",
                    "name": "entityAddress",
                    "type": "address"
                }
            ],
            "name": "isRegistered",
            "outputs": [
                {
                    "internalType": "bool",
                    "name": "isIndeed",
                    "type": "bool"
                }
            ],
            "payable": false,
            "stateMutability": "view",
            "type": "function"
        },
        {
            "constant": true,
            "inputs": [
                {
                    "internalType": "uint256",
                    "name": "",
                    "type": "uint256"
                }
            ],
            "name": "memberList",
            "outputs": [
                {
                    "internalType": "address",
                    "name": "",
                    "type": "address"
                }
            ],
            "payable": false,
            "stateMutability": "view",
            "type": "function"
        },
        {
            "constant": true,
            "inputs": [
                {
                    "internalType": "address",
                    "name": "",
                    "type": "address"
                }
            ],
            "name": "membershipStructs",
            "outputs": [
                {
                    "internalType": "bytes32",
                    "name": "commitment",
                    "type": "bytes32"
                },
                {
                    "internalType": "bool",
                    "name": "registered",
                    "type": "bool"
                },
                {
                    "internalType": "uint256",
                    "name": "listPointer",
                    "type": "uint256"
                }
            ],
            "payable": false,
            "stateMutability": "view",
            "type": "function"
        },
        {
            "constant": true,
            "inputs": [],
            "name": "merkleTree",
            "outputs": [
                {
                    "internalType": "contract MerkleTree",
                    "name": "",
                    "type": "address"
                }
            ],
            "payable": false,
            "stateMutability": "view",
            "type": "function"
        },
        {
            "constant": false,
            "inputs": [
                {
                    "internalType": "address",
                    "name": "entityAddress",
                    "type": "address"
                }
            ],
            "name": "newMember",
            "outputs": [
                {
                    "internalType": "bool",
                    "name": "success",
                    "type": "bool"
                }
            ],
            "payable": true,
            "stateMutability": "payable",
            "type": "function"
        },
        {
            "constant": true,
            "inputs": [
                {
                    "internalType": "uint256",
                    "name": "",
                    "type": "uint256"
                }
            ],
            "name": "openVotingProcedures",
            "outputs": [
                {
                    "internalType": "contract OpenVotingProcedure",
                    "name": "",
                    "type": "address"
                }
            ],
            "payable": false,
            "stateMutability": "view",
            "type": "function"
        },
        {
            "constant": true,
            "inputs": [],
            "name": "relayRegistry",
            "outputs": [
                {
                    "internalType": "contract RelayRegistry",
                    "name": "",
                    "type": "address"
                }
            ],
            "payable": false,
            "stateMutability": "view",
            "type": "function"
        },
        {
            "constant": false,
            "inputs": [
                {
                    "internalType": "address",
                    "name": "entityAddress",
                    "type": "address"
                }
            ],
            "name": "removeMember",
            "outputs": [
                {
                    "internalType": "bool",
                    "name": "success",
                    "type": "bool"
                }
            ],
            "payable": false,
            "stateMutability": "nonpayable",
            "type": "function"
        },
        {
            "constant": false,
            "inputs": [
                {
                    "internalType": "bytes32",
                    "name": "commitment",
                    "type": "bytes32"
                }
            ],
            "name": "setCommitment",
            "outputs": [
                {
                    "internalType": "bool",
                    "name": "success",
                    "type": "bool"
                }
            ],
            "payable": false,
            "stateMutability": "nonpayable",
            "type": "function"
        },
        {
            "constant": true,
            "inputs": [],
            "name": "verifier",
            "outputs": [
                {
                    "internalType": "contract Verifier",
                    "name": "",
                    "type": "address"
                }
            ],
            "payable": false,
            "stateMutability": "view",
            "type": "function"
        },
        {
            "constant": true,
            "inputs": [
                {
                    "internalType": "uint256",
                    "name": "",
                    "type": "uint256"
                }
            ],
            "name": "votingProcedures",
            "outputs": [
                {
                    "internalType": "contract VotingProcedure",
                    "name": "",
                    "type": "address"
                }
            ],
            "payable": false,
            "stateMutability": "view",
            "type": "function"
        }
    ],
    "bytecode": "60806040523480156200001157600080fd5b506040516200002090620000fc565b604051809103906000f0801580156200003d573d6000803e3d6000fd5b50600280546001600160a01b0319166001600160a01b03929092169190911790556040516200006c906200010a565b604051809103906000f08015801562000089573d6000803e3d6000fd5b50600380546001600160a01b0319166001600160a01b0392909216919091179055604051620000b89062000118565b604051809103906000f080158015620000d5573d6000803e3d6000fd5b50600480546001600160a01b0319166001600160a01b039290921691909117905562000126565b610a2a806200407783390190565b61112c8062004aa183390190565b61055b8062005bcd83390190565b613f4180620001366000396000f3fe6080604052600436106200012e5760003560e01c8063a230c52411620000af578063c3c5a547116200006d578063c3c5a5471462000344578063ca7387ea1462000369578063d02982cf1462000390578063d71cdfcf14620003a8578063d86b6ba014620003cd576200012e565b8063a230c5241462000287578063abe2003214620002ac578063ad2b303714620002d1578063b307fc6d14620002f8578063bb7df052146200032c576200012e565b80635cafbafb11620000fd5780635cafbafb14620001e55780636b92d3bb14620001fc5780638fa530bf1462000214578063997072f714620002395780639be6230c1462000260576200012e565b80630b1ca49a14620001335780632236684414620001705780632b7ac3f314620001885780633b04c0da14620001af575b600080fd5b3480156200014057600080fd5b50620001586200015236600462000c14565b620003f4565b604051620001679190620010c6565b60405180910390f35b3480156200017d57600080fd5b5062000158620004c5565b3480156200019557600080fd5b50620001a0620004d8565b60405162000167919062001104565b348015620001bc57600080fd5b50620001d4620001ce36600462000c14565b620004e7565b6040516200016793929190620010d6565b62000158620001f636600462000c14565b6200050b565b3480156200020957600080fd5b50620001a062000587565b3480156200022157600080fd5b50620001a06200023336600462000c3d565b62000596565b3480156200024657600080fd5b5062000251620005be565b60405162000167919062001183565b3480156200026d57600080fd5b5062000278620005c4565b604051620001679190620010b3565b3480156200029457600080fd5b5062000158620002a636600462000c14565b62000628565b348015620002b957600080fd5b5062000158620002cb36600462000c3d565b62000684565b348015620002de57600080fd5b50620002e962000699565b60405162000167919062000ffd565b3480156200030557600080fd5b506200031d6200031736600462000c3d565b620007e8565b60405162000167919062000fed565b3480156200033957600080fd5b50620001a0620007f6565b3480156200035157600080fd5b50620001586200036336600462000c14565b62000805565b3480156200037657600080fd5b506200038e6200038836600462000c7f565b6200083b565b005b3480156200039d57600080fd5b506200015862000a29565b348015620003b557600080fd5b50620001a0620003c736600462000c3d565b62000a36565b348015620003da57600080fd5b50620003e562000a44565b604051620001679190620010a0565b6000620004018262000628565b6200040b57600080fd5b6001600160a01b0382166000908152600560205260408120600201546006805491929160001981019081106200043d57fe5b600091825260209091200154600680546001600160a01b0390921692508291849081106200046757fe5b600091825260208083209190910180546001600160a01b0319166001600160a01b0394851617905591831681526005909152604090206002018290556006805490620004b890600019830162000aa6565b506001925050505b919050565b6000620004d23362000805565b90505b90565b6003546001600160a01b031681565b600560205260009081526040902080546001820154600290920154909160ff169083565b6000620005188262000628565b156200052357600080fd5b506006805460018181019092557ff652222313e28459528d920b65115c16c04f3efc82aaedc97be59f3f377c0d3f810180546001600160a01b0385166001600160a01b03199091168117909155600090815260056020526040902060020155919050565b6002546001600160a01b031681565b60018181548110620005a457fe5b6000918252602090912001546001600160a01b0316905081565b60065490565b606060008054806020026020016040519081016040528092919081815260200182805480156200061e57602002820191906000526020600020905b81546001600160a01b03168152600190910190602001808311620005ff575b5050505050905090565b6006546000906200063c57506000620004c0565b6001600160a01b0382166000818152600560205260409020600201546006805490919081106200066857fe5b6000918252602090912001546001600160a01b03161492915050565b33600090815260056020526040902055600190565b60606000805b600654811015620006fd576005600060068381548110620006bc57fe5b60009182526020808320909101546001600160a01b0316835282019290925260400190206001015460ff1615620006f4576001909101905b6001016200069f565b50600080905060608260405190808252806020026020018201604052801562000730578160200160208202803883390190505b50905060005b600654811015620007e05760056000600683815481106200075357fe5b60009182526020808320909101546001600160a01b0316835282019290925260400190206001015460ff1615620007d75760056000600683815481106200079657fe5b60009182526020808320909101546001600160a01b031683528201929092526040019020548251839085908110620007ca57fe5b6020026020010181815250505b60010162000736565b509250505090565b60068181548110620005a457fe5b6004546001600160a01b031681565b6006546000906200081957506000620004c0565b506001600160a01b031660009081526005602052604090206001015460ff1690565b80156200098e5760606200084e62000699565b60048054604051638e86465760e01b81529293506000926001600160a01b0390911691638e86465791620008859186910162000ffd565b60206040518083038186803b1580156200089e57600080fd5b505afa158015620008b3573d6000803e3d6000fd5b505050506040513d601f19601f82011682018060405250620008d9919081019062000c5e565b905060008287878733600360009054906101000a90046001600160a01b031687604051620009079062000ad2565b62000919979695949392919062001010565b604051809103906000f08015801562000936573d6000803e3d6000fd5b50600080546001810182559080527f290decd9548b62a8d60345a988386fc84ba6bc95484008f6362f93160ef3e5630180546001600160a01b0319166001600160a01b03929092169190911790555062000a23915050565b6000848484336006604051620009a49062000ae0565b620009b495949392919062001114565b604051809103906000f080158015620009d1573d6000803e3d6000fd5b506001805480820182556000919091527fb10e2d527612073b26eecdfd717e6a320cf44b4afac2b0732d9fcbe2b7fa0cf60180546001600160a01b0319166001600160a01b0392909216919091179055505b50505050565b6000620004d23362000628565b60008181548110620005a457fe5b606060018054806020026020016040519081016040528092919081815260200182805480156200061e576020028201919060005260206000209081546001600160a01b03168152600190910190602001808311620005ff575050505050905090565b81548183558181111562000acd5760008381526020902062000acd91810190830162000aee565b505050565b61188680620012fd83390190565b61137c8062002b8383390190565b620004d591905b8082111562000b0b576000815560010162000af5565b5090565b803562000b1c81620012cc565b92915050565b600082601f83011262000b3457600080fd5b813562000b4b62000b4582620011bb565b62001193565b81815260209384019390925082018360005b8381101562000b8d578135860162000b76888262000bbe565b845250602092830192919091019060010162000b5d565b5050505092915050565b803562000b1c81620012e6565b803562000b1c81620012f1565b805162000b1c81620012f1565b600082601f83011262000bd057600080fd5b813562000be162000b4582620011dd565b9150808252602083016020830185838301111562000bfe57600080fd5b62000c0b83828462001262565b50505092915050565b60006020828403121562000c2757600080fd5b600062000c35848462000b0f565b949350505050565b60006020828403121562000c5057600080fd5b600062000c35848462000ba4565b60006020828403121562000c7157600080fd5b600062000c35848462000bb1565b6000806000806080858703121562000c9657600080fd5b843567ffffffffffffffff81111562000cae57600080fd5b62000cbc8782880162000bbe565b945050602085013567ffffffffffffffff81111562000cda57600080fd5b62000ce88782880162000bbe565b935050604085013567ffffffffffffffff81111562000d0657600080fd5b62000d148782880162000b22565b925050606062000d278782880162000b97565b91505092959194509250565b600062000d41838362000d8b565b505060200190565b600062000d41838362000f97565b600062000d41838362000fa2565b600062000d73838362000fad565b9392505050565b62000d85816200124d565b82525050565b62000d85816200123b565b600062000da38262001218565b62000daf818562001226565b935062000dbc8362001206565b8060005b8381101562000df95762000dd482620012b4565b62000de0888262000d33565b975062000ded8362001220565b92505060010162000dc0565b509495945050505050565b600062000e11826200121c565b62000e1d818562001226565b935062000e2a8362001212565b8060005b8381101562000df957815162000e45888262000d49565b975062000e528362001212565b92505060010162000e2e565b600062000e6b826200121c565b62000e77818562001226565b935062000e848362001212565b8060005b8381101562000df957815162000e9f888262000d57565b975062000eac8362001212565b92505060010162000e88565b600062000ec5826200121c565b62000ed1818562001226565b935062000ede8362001212565b8060005b8381101562000df957815162000ef9888262000d57565b975062000f068362001212565b92505060010162000ee2565b600062000f1f826200121c565b62000f2b818562001226565b93508360208202850162000f3f8562001212565b8060005b8581101562000f7f578484038952815162000f5f858262000d65565b945062000f6c8362001212565b60209a909a019992505060010162000f43565b5091979650505050505050565b62000d858162001248565b62000d8581620004d5565b62000d858162001255565b600062000fba826200121c565b62000fc6818562001226565b935062000fd88185602086016200126e565b62000fe381620012c2565b9093019392505050565b6020810162000b1c828462000d8b565b6020808252810162000d73818462000e04565b60e0808252810162001023818a62000e04565b9050818103602083015262001039818962000fad565b905081810360408301526200104f818862000fad565b9050818103606083015262001065818762000f12565b905062001076608083018662000d7a565b6200108560a083018562000fa2565b6200109460c083018462000f97565b98975050505050505050565b6020808252810162000d73818462000e5e565b6020808252810162000d73818462000eb8565b6020810162000b1c828462000f8c565b60608101620010e6828662000f97565b620010f5602083018562000f8c565b62000c35604083018462000f97565b6020810162000b1c828462000fa2565b60a0808252810162001127818862000fad565b905081810360208301526200113d818762000fad565b9050818103604083015262001153818662000f12565b905062001164606083018562000d7a565b818103608083015262001178818462000d96565b979650505050505050565b6020810162000b1c828462000f97565b60405181810167ffffffffffffffff81118282101715620011b357600080fd5b604052919050565b600067ffffffffffffffff821115620011d357600080fd5b5060209081020190565b600067ffffffffffffffff821115620011f557600080fd5b506020601f91909101601f19160190565b60009081526020902090565b60200190565b5490565b5190565b60010190565b90815260200190565b6001600160a01b031690565b600062000b1c826200122f565b151590565b600062000b1c825b600062000b1c826200123b565b82818337506000910152565b60005b838110156200128b57818101518382015260200162001271565b8381111562000a235750506000910152565b600062000b1c620012ae83620004d5565b6200122f565b600062000b1c82546200129d565b601f01601f191690565b620012d7816200123b565b8114620012e357600080fd5b50565b620012d78162001248565b620012d781620004d556fe60806040523480156200001157600080fd5b506040516200188638038062001886833981016040819052620000349162000409565b600180546001600160a01b031916331790556007819055600480546200005d91908190620000dd565b5085516200007390600390602089019062000132565b5084516200008990600290602088019062000132565b5083516200009f906005906020870190620001a5565b5050600680546001600160a01b0319166001600160a01b03938416179055600080546001600160a81b03191691909216179055506200060992505050565b828054828255906000526020600020908101928215620001205760005260206000209182015b828111156200012057825482559160010191906001019062000103565b506200012e92915062000205565b5090565b828054600181600116156101000203166002900490600052602060002090601f016020900481019282601f106200017557805160ff191683800117855562000120565b8280016001018555821562000120579182015b828111156200012057825182559160200191906001019062000188565b828054828255906000526020600020908101928215620001f7579160200282015b82811115620001f75782518051620001e691849160209091019062000132565b5091602001919060010190620001c6565b506200012e92915062000225565b6200022291905b808211156200012e57600081556001016200020c565b90565b6200022291905b808211156200012e5760006200024382826200024d565b506001016200022c565b50805460018160011615610100020316600290046000825580601f1062000275575062000295565b601f01602090049060005260206000209081019062000295919062000205565b50565b8051620002a581620005dc565b92915050565b600082601f830112620002bd57600080fd5b8151620002d4620002ce826200053a565b62000513565b91508181835260208401935060208101905083856020840282011115620002fa57600080fd5b60005b838110156200032a578162000313888262000399565b8452506020928301929190910190600101620002fd565b5050505092915050565b600082601f8301126200034657600080fd5b815162000357620002ce826200053a565b81815260209384019390925082018360005b838110156200032a5781518601620003828882620003b3565b845250602092830192919091019060010162000369565b8051620002a581620005f3565b8051620002a581620005fe565b600082601f830112620003c557600080fd5b8151620003d6620002ce826200055b565b91508082526020830160208301858383011115620003f357600080fd5b62000400838284620005a9565b50505092915050565b600080600080600080600060e0888a0312156200042557600080fd5b87516001600160401b038111156200043c57600080fd5b6200044a8a828b01620002ab565b97505060208801516001600160401b038111156200046757600080fd5b620004758a828b01620003b3565b96505060408801516001600160401b038111156200049257600080fd5b620004a08a828b01620003b3565b95505060608801516001600160401b03811115620004bd57600080fd5b620004cb8a828b0162000334565b9450506080620004de8a828b0162000298565b93505060a0620004f18a828b01620003a6565b92505060c0620005048a828b0162000399565b91505092959891949750929550565b6040518181016001600160401b03811182821017156200053257600080fd5b604052919050565b60006001600160401b038211156200055157600080fd5b5060209081020190565b60006001600160401b038211156200057257600080fd5b506020601f91909101601f19160190565b6000620002a5826200059d565b6000620002a58262000583565b6001600160a01b031690565b60005b83811015620005c6578181015183820152602001620005ac565b83811115620005d6576000848401525b50505050565b620005e78162000583565b81146200029557600080fd5b620005e78162000222565b620005e78162000590565b61126d80620006196000396000f3fe608060405234801561001057600080fd5b506004361061010b5760003560e01c8063ad2b3037116100a2578063c631b29211610071578063c631b292146101d6578063c821f407146101de578063d2db7cc3146101f1578063dff67f6b146101f9578063f53d0a8e1461020c5761010b565b8063ad2b3037146101a7578063affc0670146101af578063b6db75a0146101b9578063c040e6b8146101c15761010b565b80634a79d50c116100de5780634a79d50c1461016d5780637284e4161461018257806383859cf71461018a578063890367711461019f5761010b565b80630dc96015146101105780632b7ac3f31461012e5780632eb4a7ab1461014357806343e1ca4914610158575b600080fd5b610118610221565b6040516101259190611003565b60405180910390f35b610136610279565b6040516101259190611081565b61014b610288565b6040516101259190611073565b61016061028e565b6040516101259190611065565b610175610293565b604051610125919061109d565b610175610321565b610192610379565b6040516101259190611014565b610136610451565b610118610460565b6101b76104b6565b005b61016061053f565b6101c9610550565b604051610125919061108f565b6101b7610560565b6101606101ec366004610b0d565b6105dc565b610118610833565b610175610207366004610b96565b610889565b6102146108fc565b6040516101259190610ff5565b6060600880548060200260200160405190810160405280929190818152602001828054801561026f57602002820191906000526020600020905b81548152602001906001019080831161025b575b5050505050905090565b6000546001600160a01b031681565b60075481565b600190565b6003805460408051602060026001851615610100026000190190941693909304601f810184900484028201840190925281815292918301828280156103195780601f106102ee57610100808354040283529160200191610319565b820191906000526020600020905b8154815290600101906020018083116102fc57829003601f168201915b505050505081565b6002805460408051602060018416156101000260001901909316849004601f810184900484028201840190925281815292918301828280156103195780601f106102ee57610100808354040283529160200191610319565b60606005805480602002602001604051908101604052809291908181526020016000905b828210156104485760008481526020908190208301805460408051601f60026000196101006001871615020190941693909304928301859004850281018501909152818152928301828280156104345780601f1061040957610100808354040283529160200191610434565b820191906000526020600020905b81548152906001019060200180831161041757829003601f168201915b50505050508152602001906001019061039d565b50505050905090565b6001546001600160a01b031681565b6060600480548060200260200160405190810160405280929190818152602001828054801561026f576020028201919060005260206000209081548152602001906001019080831161025b575050505050905090565b6006546001600160a01b031633146104e95760405162461bcd60e51b81526004016104e0906110be565b60405180910390fd5b600080600054600160a01b900460ff16600381111561050457fe5b146105215760405162461bcd60e51b81526004016104e0906110ae565b600080546001919060ff60a01b1916600160a01b835b021790555050565b6006546001600160a01b0316331490565b600054600160a01b900460ff1681565b6006546001600160a01b0316331461058a5760405162461bcd60e51b81526004016104e0906110be565b600180600054600160a01b900460ff1660038111156105a557fe5b146105c25760405162461bcd60e51b81526004016104e0906110ae565b600080546002919060ff60a01b1916600160a01b83610537565b6000600180600054600160a01b900460ff1660038111156105f957fe5b146106165760405162461bcd60e51b81526004016104e0906110ae565b600061063184600460200201518560055b602002015161090b565b60008181526009602052604090205490915060ff16156106635760405162461bcd60e51b81526004016104e0906110ee565b600754845161067490866001610627565b146106915760405162461bcd60e51b81526004016104e0906110ce565b61069a3061093e565b60c08501516106ab90866007610627565b146106c85760405162461bcd60e51b81526004016104e09061110e565b6101008401516001146106ed5760405162461bcd60e51b81526004016104e0906110fe565b60005460405163614359f360e11b81526001600160a01b039091169063c286b3e690610723908a908a908a908a90600401611025565b602060405180830381600087803b15801561073d57600080fd5b505af1158015610751573d6000803e3d6000fd5b505050506040513d601f19601f820116820180604052506107759190810190610b70565b6107915760405162461bcd60e51b81526004016104e0906110de565b6000818152600960205260408120805460ff19166001908117909155600a8054918201815582527fc65a7bb8d6351c1cf70c95a316cc6a92839c986682d98bc35f958f4883f9d2a8018290556107f08560026020020151866003610627565b60088054600180820183556000929092527ff3f7a9fe364faab93b216da50a3214154f22a0a2b415b23a84c8169e8b636ee3019190915598975050505050505050565b6060600a80548060200260200160405190810160405280929190818152602001828054801561026f576020028201919060005260206000209081548152602001906001019080831161025b575050505050905090565b6005818154811061089657fe5b600091825260209182902001805460408051601f60026000196101006001871615020190941693909304928301859004850281018501909152818152935090918301828280156103195780601f106102ee57610100808354040283529160200191610319565b6006546001600160a01b031681565b6fffffffffffffffffffffffffffffffff19608083901b166fffffffffffffffffffffffffffffffff8216175b92915050565b604080516001600160a01b0392909216600560a21b18601483015260348201905290565b600082601f83011261097357600080fd5b600261098661098182611145565b61111e565b9150818385604084028201111561099c57600080fd5b60005b838110156109ca57816109b288826109d4565b8452506020909201916040919091019060010161099f565b5050505092915050565b600082601f8301126109e557600080fd5b60026109f361098182611145565b91508183856020840282011115610a0957600080fd5b60005b838110156109ca5781610a1f8882610b02565b8452506020928301929190910190600101610a0c565b600082601f830112610a4657600080fd5b6002610a5461098182611145565b91508183856020840282011115610a6a57600080fd5b60005b838110156109ca5781610a808882610b02565b8452506020928301929190910190600101610a6d565b600082601f830112610aa757600080fd5b6009610ab561098182611145565b91508183856020840282011115610acb57600080fd5b60005b838110156109ca5781610ae18882610b02565b8452506020928301929190910190600101610ace565b80516109388161120d565b803561093881611221565b6000806000806102208587031215610b2457600080fd5b6000610b308787610a35565b9450506040610b4187828801610962565b93505060c0610b5287828801610a35565b925050610100610b6487828801610a96565b91505092959194509250565b600060208284031215610b8257600080fd5b6000610b8e8484610af7565b949350505050565b600060208284031215610ba857600080fd5b6000610b8e8484610b02565b6000610bc08383610d65565b505060400190565b6000610bd48383610e06565b505060200190565b6000610be88383610e21565b9392505050565b610bf88161118a565b82525050565b610c078161116c565b610c11818461117c565b9250610c1c82611163565b8060005b83811015610c4a578151610c348782610bb4565b9650610c3f83611166565b925050600101610c20565b505050505050565b6000610c5d82611172565b610c678185611181565b9350610c7283611166565b8060005b83811015610ca0578151610c8a8882610bc8565b9750610c9583611166565b925050600101610c76565b509495945050505050565b6000610cb682611172565b610cc08185611181565b935083602082028501610cd285611166565b8060005b85811015610d0c5784840389528151610cef8582610bdc565b9450610cfa83611166565b60209a909a0199925050600101610cd6565b5091979650505050505050565b610d228161116c565b610d2c818461117c565b9250610d3782611163565b8060005b83811015610c4a578151610d4f8782610bc8565b9650610d5a83611166565b925050600101610d3b565b610d6e8161116c565b610d78818461117c565b9250610d8382611163565b8060005b83811015610c4a578151610d9b8782610bc8565b9650610da683611166565b925050600101610d87565b610dba81611176565b610dc4818461117c565b9250610dcf82611163565b8060005b83811015610c4a578151610de78782610bc8565b9650610df283611166565b925050600101610dd3565b610bf881611195565b610bf881611163565b610bf8816111b0565b610bf8816111bb565b6000610e2c82611172565b610e368185611181565b9350610e468185602086016111c6565b610e4f816111f6565b9093019392505050565b6000610e66602883611181565b7f4e6f7420616c6c6f776564206174207468652063757272656e7420766f74696e815267339039ba30b3b29760c11b602082015260400192915050565b6000610eb0602883611181565b7f4d6179206f6e6c792062652063616c6c6564206279207468652061646d696e6981526739ba3930ba37b91760c11b602082015260400192915050565b6000610efa601883611181565b7f4d65726b6c6520726f6f7420646f65736e74206d617463680000000000000000815260200192915050565b6000610f33600f83611181565b6e141c9bdbd9881b9bdd081d985b1a59608a1b815260200192915050565b6000610f5e601683611181565b75139d5b1b1a599a595c88185b1c9958591e481d5cd95960521b815260200192915050565b6000610f90601c83611181565b7f70726f6f662072657475726e2076616c7565206d757374206265203100000000815260200192915050565b6000610fc9601d83611181565b7f436f6e7472616374206164647265737320646f65736e74206d61746368000000815260200192915050565b602081016109388284610bef565b60208082528101610be88184610c52565b60208082528101610be88184610cab565b61022081016110348287610d19565b6110416040830186610bfe565b61104e60c0830185610d19565b61105c610100830184610db1565b95945050505050565b602081016109388284610dfd565b602081016109388284610e06565b602081016109388284610e0f565b602081016109388284610e18565b60208082528101610be88184610e21565b6020808252810161093881610e59565b6020808252810161093881610ea3565b6020808252810161093881610eed565b6020808252810161093881610f26565b6020808252810161093881610f51565b6020808252810161093881610f83565b6020808252810161093881610fbc565b60405181810167ffffffffffffffff8111828210171561113d57600080fd5b604052919050565b600067ffffffffffffffff82111561115c57600080fd5b5060200290565b90565b60200190565b50600290565b5190565b50600990565b919050565b90815260200190565b6000610938826111a4565b151590565b8061117c81611200565b6001600160a01b031690565b60006109388261118a565b60006109388261119a565b60005b838110156111e15781810151838201526020016111c9565b838111156111f0576000848401525b50505050565b601f01601f191690565b6004811061120a57fe5b50565b61121681611195565b811461120a57600080fd5b6112168161116356fea365627a7a723158202f0e7915b54c9c1f9567b03147d4d859cf2d7b238c767c618716cb1dfbac4e546c6578706572696d656e74616cf564736f6c634300050e004060806040523480156200001157600080fd5b506040516200137c3803806200137c833981016040819052620000349162000493565b60008054610100600160a81b031916336101000217905584516200006090600290602088019062000137565b5083516200007690600190602087019062000137565b5082516200008c906005906020860190620001bc565b508051620000a29060039060208401906200021c565b5060005b600354811015620001025760016004600060038481548110620000c557fe5b6000918252602080832091909101546001600160a01b031683528201929092526040019020805460ff1916911515919091179055600101620000a6565b5050600680546001600160a01b0319166001600160a01b039290921691909117905550506000805460ff19169055506200063e565b828054600181600116156101000203166002900490600052602060002090601f016020900481019282601f106200017a57805160ff1916838001178555620001aa565b82800160010185558215620001aa579182015b82811115620001aa5782518255916020019190600101906200018d565b50620001b892915062000282565b5090565b8280548282559060005260206000209081019282156200020e579160200282015b828111156200020e5782518051620001fd91849160209091019062000137565b5091602001919060010190620001dd565b50620001b8929150620002a2565b82805482825590600052602060002090810192821562000274579160200282015b828111156200027457825182546001600160a01b0319166001600160a01b039091161782556020909201916001909101906200023d565b50620001b8929150620002ca565b6200029f91905b80821115620001b8576000815560010162000289565b90565b6200029f91905b80821115620001b8576000620002c08282620002f1565b50600101620002a9565b6200029f91905b80821115620001b85780546001600160a01b0319168155600101620002d1565b50805460018160011615610100020316600290046000825580601f1062000319575062000339565b601f01602090049060005260206000209081019062000339919062000282565b50565b8051620003498162000627565b92915050565b600082601f8301126200036157600080fd5b815162000378620003728262000599565b62000572565b915081818352602084019350602081019050838560208402820111156200039e57600080fd5b60005b83811015620003ce5781620003b788826200033c565b8452506020928301929190910190600101620003a1565b5050505092915050565b600082601f830112620003ea57600080fd5b8151620003fb620003728262000599565b81815260209384019390925082018360005b83811015620003ce57815186016200042688826200043d565b84525060209283019291909101906001016200040d565b600082601f8301126200044f57600080fd5b8151620004606200037282620005ba565b915080825260208301602083018583830111156200047d57600080fd5b6200048a838284620005f4565b50505092915050565b600080600080600060a08688031215620004ac57600080fd5b85516001600160401b03811115620004c357600080fd5b620004d1888289016200043d565b95505060208601516001600160401b03811115620004ee57600080fd5b620004fc888289016200043d565b94505060408601516001600160401b038111156200051957600080fd5b6200052788828901620003d8565b93505060606200053a888289016200033c565b92505060808601516001600160401b038111156200055757600080fd5b62000565888289016200034f565b9150509295509295909350565b6040518181016001600160401b03811182821017156200059157600080fd5b604052919050565b60006001600160401b03821115620005b057600080fd5b5060209081020190565b60006001600160401b03821115620005d157600080fd5b506020601f91909101601f19160190565b60006001600160a01b03821662000349565b60005b8381101562000611578181015183820152602001620005f7565b8381111562000621576000848401525b50505050565b6200063281620005e2565b81146200033957600080fd5b610d2e806200064e6000396000f3fe608060405234801561001057600080fd5b50600436106100f55760003560e01c8063a01647e611610097578063c631b29211610066578063c631b292146101c1578063dff67f6b146101c9578063f53d0a8e146101dc578063fc36e15b146101f1576100f5565b8063a01647e614610185578063affc06701461019a578063b6db75a0146101a4578063c040e6b8146101ac576100f5565b806366e305fd116100d357806366e305fd146101405780637284e4161461016057806383859cf7146101685780638903677114610170576100f5565b80630dc96015146100fa5780634a79d50c146101185780635df813301461012d575b600080fd5b610102610204565b60405161010f9190610b51565b60405180910390f35b6101206102dd565b60405161010f9190610b8c565b61012061013b3660046108d7565b610368565b61015361014e36600461087c565b6103db565b60405161010f9190610b62565b6101206103fd565b610102610457565b610178610526565b60405161010f9190610b70565b61018d61053a565b60405161010f9190610b40565b6101a261059c565b005b610153610617565b6101b4610628565b60405161010f9190610b7e565b6101a2610631565b6101206101d73660046108d7565b6106a0565b6101e46106ad565b60405161010f9190610b32565b6101a26101ff3660046108a2565b6106bc565b60606007805480602002602001604051908101604052809291908181526020016000905b828210156102d35760008481526020908190208301805460408051601f60026000196101006001871615020190941693909304928301859004850281018501909152818152928301828280156102bf5780601f10610294576101008083540402835291602001916102bf565b820191906000526020600020905b8154815290600101906020018083116102a257829003601f168201915b505050505081526020019060010190610228565b5050505090505b90565b6002805460408051602060018416156101000260001901909316849004601f810184900484028201840190925281815292918301828280156103605780601f1061033557610100808354040283529160200191610360565b820191906000526020600020905b81548152906001019060200180831161034357829003601f168201915b505050505081565b6007818154811061037557fe5b600091825260209182902001805460408051601f60026000196101006001871615020190941693909304928301859004850281018501909152818152935090918301828280156103605780601f1061033557610100808354040283529160200191610360565b6001600160a01b03811660009081526004602052604090205460ff165b919050565b60018054604080516020600284861615610100026000190190941693909304601f810184900484028201840190925281815292918301828280156103605780601f1061033557610100808354040283529160200191610360565b60606005805480602002602001604051908101604052809291908181526020016000905b828210156102d35760008481526020908190208301805460408051601f60026000196101006001871615020190941693909304928301859004850281018501909152818152928301828280156105125780601f106104e757610100808354040283529160200191610512565b820191906000526020600020905b8154815290600101906020018083116104f557829003601f168201915b50505050508152602001906001019061047b565b60005461010090046001600160a01b031681565b6060600380548060200260200160405190810160405280929190818152602001828054801561059257602002820191906000526020600020905b81546001600160a01b03168152600190910190602001808311610574575b5050505050905090565b6006546001600160a01b031633146105cf5760405162461bcd60e51b81526004016105c690610bcd565b60405180910390fd5b60008060005460ff1660038111156105e357fe5b146106005760405162461bcd60e51b81526004016105c690610b9d565b600080546001919060ff191682805b021790555050565b6006546001600160a01b0316331490565b60005460ff1681565b6006546001600160a01b0316331461065b5760405162461bcd60e51b81526004016105c690610bcd565b60018060005460ff16600381111561066f57fe5b1461068c5760405162461bcd60e51b81526004016105c690610b9d565b600080546002919060ff191660018361060f565b6005818154811061037557fe5b6006546001600160a01b031681565b3360009081526008602052604090205460ff16156106ec5760405162461bcd60e51b81526004016105c690610bad565b6106f5336103db565b6107115760405162461bcd60e51b81526004016105c690610bbd565b60078054600181018083556000929092528251610755917fa66cc928b5edb82af9bd49922954155ab7b0942694bea4ce44661d9a8736c68801906020850190610774565b5050336000908152600860205260409020805460ff1916600117905550565b828054600181600116156101000203166002900490600052602060002090601f016020900481019282601f106107b557805160ff19168380011785556107e2565b828001600101855582156107e2579182015b828111156107e25782518255916020019190600101906107c7565b506107ee9291506107f2565b5090565b6102da91905b808211156107ee57600081556001016107f8565b803561081781610cce565b92915050565b600082601f83011261082e57600080fd5b813561084161083c82610c04565b610bdd565b9150808252602083016020830185838301111561085d57600080fd5b610868838284610c7b565b50505092915050565b803561081781610ce2565b60006020828403121561088e57600080fd5b600061089a848461080c565b949350505050565b6000602082840312156108b457600080fd5b813567ffffffffffffffff8111156108cb57600080fd5b61089a8482850161081d565b6000602082840312156108e957600080fd5b600061089a8484610871565b6000610901838361091c565b505060200190565b60006109158383610a0d565b9392505050565b61092581610c3f565b82525050565b600061093682610c32565b6109408185610c36565b935061094b83610c2c565b8060005b8381101561097957815161096388826108f5565b975061096e83610c2c565b92505060010161094f565b509495945050505050565b600061098f82610c32565b6109998185610c36565b9350836020820285016109ab85610c2c565b8060005b858110156109e557848403895281516109c88582610909565b94506109d383610c2c565b60209a909a01999250506001016109af565b5091979650505050505050565b61092581610c4a565b61092581610c65565b61092581610c70565b6000610a1882610c32565b610a228185610c36565b9350610a32818560208601610c87565b610a3b81610cb7565b9093019392505050565b6000610a52602883610c36565b7f4e6f7420616c6c6f776564206174207468652063757272656e7420766f74696e815267339039ba30b3b29760c11b602082015260400192915050565b6000610a9c600d83610c36565b6c105b1c9958591e48159bdd1959609a1b815260200192915050565b6000610ac5601483610c36565b734e6f7420456c696769626c6520746f20566f746560601b815260200192915050565b6000610af5602883610c36565b7f4d6179206f6e6c792062652063616c6c6564206279207468652061646d696e6981526739ba3930ba37b91760c11b602082015260400192915050565b60208101610817828461091c565b60208082528101610915818461092b565b602080825281016109158184610984565b6020810161081782846109f2565b6020810161081782846109fb565b602081016108178284610a04565b602080825281016109158184610a0d565b6020808252810161081781610a45565b6020808252810161081781610a8f565b6020808252810161081781610ab8565b6020808252810161081781610ae8565b60405181810167ffffffffffffffff81118282101715610bfc57600080fd5b604052919050565b600067ffffffffffffffff821115610c1b57600080fd5b506020601f91909101601f19160190565b60200190565b5190565b90815260200190565b600061081782610c59565b151590565b806103f881610cc1565b6001600160a01b031690565b600061081782610c3f565b600061081782610c4f565b82818337506000910152565b60005b83811015610ca2578181015183820152602001610c8a565b83811115610cb1576000848401525b50505050565b601f01601f191690565b60048110610ccb57fe5b50565b610cd781610c3f565b8114610ccb57600080fd5b610cd7816102da56fea365627a7a723158209ed2f9c6a4fb0a2d71817393c8c8ced09c88539884c54fe5eba3a50d25a15fe96c6578706572696d656e74616cf564736f6c634300050e0040a365627a7a72315820b987fa4933013565816999b18b9d79555709e35e21d7f92ecb7d1d6d75fdba1e6c6578706572696d656e74616cf564736f6c634300050e00406080604052670de0b6b3a764000060005534801561001c57600080fd5b506109fe8061002c6000396000f3fe60806040526004361061007b5760003560e01c80634dd448bf1161004e5780634dd448bf1461010b57806352c2c9e9146101395780635d1b45b5146101595780636695a65b1461017b5761007b565b806301dbe7b81461008057806314887c58146100a9578063404cbffb146100c95780634b29f5ab146100f6575b600080fd5b61009361008e36600461074f565b61019d565b6040516100a0919061089b565b60405180910390f35b3480156100b557600080fd5b506100936100c4366004610729565b610254565b3480156100d557600080fd5b506100e96100e4366004610784565b6102ae565b6040516100a0919061087c565b34801561010257600080fd5b506100936102d5565b34801561011757600080fd5b5061012b610126366004610729565b6103d7565b6040516100a09291906108a9565b34801561014557600080fd5b5061009361015436600461074f565b610479565b34801561016557600080fd5b5061016e6104c1565b6040516100a091906108c9565b34801561018757600080fd5b506101906104c7565b6040516100a0919061088a565b6000336101a981610254565b156101b357600080fd5b60005434146101c157600080fd5b6001600160a01b038116600090815260016020908152604090912084516101ea928601906105f8565b506002805460018181019092557f405787fa12a823e0f2b7631cc41b3ba8828b3321ca811111fa75cd3aa3bb5ace810180546001600160a01b039094166001600160a01b03199094168417905560009283526020829052604090922081019190915590505b919050565b6002546000906102665750600061024f565b6001600160a01b0382166000818152600160208190526040909120015460028054909190811061029257fe5b6000918252602090912001546001600160a01b03161492915050565b600281815481106102bb57fe5b6000918252602090912001546001600160a01b0316905081565b6000336102e181610254565b6102ea57600080fd5b6001600160a01b03811660009081526001602081905260408220015460028054919291600019810190811061031b57fe5b600091825260209091200154600280546001600160a01b03909216925082918490811061034457fe5b600091825260208083209190910180546001600160a01b0319166001600160a01b03948516179055918316815260019182905260409020018290556002805490610392906000198301610676565b50600080546040516001600160a01b0386169282156108fc02929190818181858888f193505050501580156103cb573d6000803e3d6000fd5b50600193505050505b90565b60016020818152600092835260409283902080548451600294821615610100026000190190911693909304601f81018390048302840183019094528383529283918301828280156104695780601f1061043e57610100808354040283529160200191610469565b820191906000526020600020905b81548152906001019060200180831161044c57829003601f168201915b5050505050908060010154905082565b60003361048581610254565b61048e57600080fd5b6001600160a01b038116600090815260016020908152604090912084516104b7928601906105f8565b5060019392505050565b60025490565b60608060028054905060405190808252806020026020018201604052801561050357816020015b60608152602001906001900390816104ee5790505b50905060005b6002548110156105f257600160006002838154811061052457fe5b6000918252602080832091909101546001600160a01b0316835282810193909352604091820190208054825160026101006001841615026000190190921691909104601f8101859004850282018501909352828152929091908301828280156105ce5780601f106105a3576101008083540402835291602001916105ce565b820191906000526020600020905b8154815290600101906020018083116105b157829003601f168201915b50505050508282815181106105df57fe5b6020908102919091010152600101610509565b50905090565b828054600181600116156101000203166002900490600052602060002090601f016020900481019282601f1061063957805160ff1916838001178555610666565b82800160010185558215610666579182015b8281111561066657825182559160200191906001019061064b565b5061067292915061069f565b5090565b81548183558181111561069a5760008381526020902061069a91810190830161069f565b505050565b6103d491905b8082111561067257600081556001016106a5565b80356106c48161099b565b92915050565b600082601f8301126106db57600080fd5b81356106ee6106e9826108fe565b6108d7565b9150808252602083016020830185838301111561070a57600080fd5b610715838284610955565b50505092915050565b80356106c4816109b2565b60006020828403121561073b57600080fd5b600061074784846106b9565b949350505050565b60006020828403121561076157600080fd5b813567ffffffffffffffff81111561077857600080fd5b610747848285016106ca565b60006020828403121561079657600080fd5b6000610747848461071e565b60006107ae838361083b565b9392505050565b6107be81610939565b82525050565b60006107cf8261092c565b6107d98185610930565b9350836020820285016107eb85610926565b8060005b85811015610825578484038952815161080885826107a2565b945061081383610926565b60209a909a01999250506001016107ef565b5091979650505050505050565b6107be81610944565b60006108468261092c565b6108508185610930565b9350610860818560208601610961565b61086981610991565b9093019392505050565b6107be816103d4565b602081016106c482846107b5565b602080825281016107ae81846107c4565b602081016106c48284610832565b604080825281016108ba818561083b565b90506107ae6020830184610873565b602081016106c48284610873565b60405181810167ffffffffffffffff811182821017156108f657600080fd5b604052919050565b600067ffffffffffffffff82111561091557600080fd5b506020601f91909101601f19160190565b60200190565b5190565b90815260200190565b60006106c482610949565b151590565b6001600160a01b031690565b82818337506000910152565b60005b8381101561097c578181015183820152602001610964565b8381111561098b576000848401525b50505050565b601f01601f191690565b6109a481610939565b81146109af57600080fd5b50565b6109a4816103d456fea365627a7a7231582066d36174ce2bfa965b856a7a05d5d51602ad73acdce979e87cf1dcf9eb487d946c6578706572696d656e74616cf564736f6c634300050e0040608060405234801561001057600080fd5b5061110c806100206000396000f3fe608060405234801561001057600080fd5b506004361061002b5760003560e01c8063c286b3e614610030575b600080fd5b61012d600480360361022081101561004757600080fd5b6040805180820182529183019291818301918390600290839083908082843760009201829052506040805180820190915293969594608081019493509150600290835b828210156100c8576040805180820182529080840286019060029083908390808284376000920191909152505050815260019091019060200161008a565b505060408051808201825293969594818101949350915060029083908390808284376000920191909152505060408051610120818101909252929594938181019392509060099083908390808284376000920191909152509194506101419350505050565b604080519115158252519081900360200190f35b600061014b610f8a565b6040805180820182528751815260208089015181830152908352815160808101835287515181840190815288518301516060808401919091529082528351808501855289840180515182525184015181850152828401528483019190915282518084018452875181528783015181840152848401528251600980825261014082019094529092909182016101208038833901905050905060005b600981101561021e578481600981106101fa57fe5b602002015182828151811061020b57fe5b60209081029190910101526001016101e5565b506102298183610292565b610283577f3f3cfdb26fb5f9f1786ab4f1a1f9cd4c0b5e726cbdfc26e495261731aad44e396040518080602001828103825260228152602001806110b66022913960400191505060405180910390a160019250505061028a565b6000925050505b949350505050565b60007f30644e72e131a029b85045b68181585d2833e84879b9709143e1f593f00000016102bd610fbc565b6102c56103f3565b90508060800151518551600101146102dc57600080fd5b6102e4611003565b50604080518082019091526000808252602082018190525b865181101561036e578387828151811061031257fe5b60200260200101511061032457600080fd5b6103648261035f8560800151846001018151811061033e57fe5b60200260200101518a858151811061035257fe5b6020026020010151610afc565b610b55565b91506001016102fc565b5061039181836080015160008151811061038457fe5b6020026020010151610b55565b90506103d5856000015186602001516103a984610ba4565b85604001516103bb8a60400151610ba4565b606088015188516103cb90610ba4565b8960200151610c30565b6103e557600193505050506103ed565b600093505050505b92915050565b6103fb610fbc565b6040805180820182527f268d4c945a96cabd44677fc9229d8d2bf1ed48741d4ac94b9fb106595cf52fe881527f2ca68e6fe6f77089f8c5c87df035c0742557497df3552e540880bea6e5dd96116020808301919091529083528151608080820184527f1106f933bdd2572daeef2b86007ebbd5d4b7da04a345ff8eef0b35039a9728d98285019081527f0c50133df56f0f90bfeacaba2182d3ec3a0f2784bd8ecd25a591adfcb2bb1f37606080850191909152908352845180860186527f131d6f43ffff4739692fcbd50dacd6881f49d9b5caafd8a414202d514567fb0881527f178b71d8b27b052b57d465c1f3f3ddea6357b7a2ae8033d9cd56a97bc2f1e96c818601528385015285840192909252835180820185527f2ed29420a9243104654c4aaf217329080d478855fb700b5e5413c325d3afba3d8186019081527f03078b7fec7f9d9d62028a470bedfc209377b553cd10067f6dda5f49668a555a828501528152845180860186527f150a2106edb9e63faf6e828c186468d4e16967198807479a3446304ef212c4aa81527f02d8b567e2b786d98040b3d8ac472db46c04f5fcc38bebf7b125e1155b57dfad818601528185015285850152835190810184527f1ead50933a78afdec5d61adf5ab962fd85a4962178dbde67bf89948e951eb3a18185019081527f2137bc00bfc94c86e80998aca4dbb96783079a0387094d4fa65c792342a0d845828401528152835180850185527e1eb64cb699a522b78823e1d681307a3b7aa917486735553e21b559d26c90af81527f0754880420e6df4ed0908c2545a73ae56e1140c5822ce796d53b6b6e6be6ab838185015281840152908401528151600a8082526101608201909352919082015b61067e611003565b81526020019060019003908161067657505060808201908152604080518082019091527f18784ed225ba771fa913b7ea5c60e5c64c384de3f6c79e0566db6b9928acd66281527f07a6a6e8ed68c5a75e098b1527619181e6b6ea9790f8b4ef2c311927b9029dfc6020820152905180516000906106f757fe5b602002602001018190525060405180604001604052807f18eef651bce5d32368d63a07c905da78659418ad605e4955b3553a8915d7d3be81526020017f021ecdca2b9db1e032ae765cc0527a1c9c84aef5b424ede9f576fed2109b81e3815250816080015160018151811061076857fe5b602002602001018190525060405180604001604052807f22af533d710d6f100438ff7d649c8dad954824188ee4a0f2c8532d8b37b7517281526020017f1ea32f502ff385bcd129aa8cb67bc5404048bf10831618396550156398d964e181525081608001516002815181106107d957fe5b602002602001018190525060405180604001604052807e5582d5745069fe7aebb96a3edb32f4296c9a998db9ea36d6aaa5a3f0824fb081526020017e21f2e982864fe764d9638d75c59b55579ab00d76e8f86b49cf22c6c52e774a815250816080015160038151811061084857fe5b602002602001018190525060405180604001604052807f0c809d7e322fc8c58def54f30e35deedcbe07e972929ceaf8989c0fe01d5800481526020017f2c9beac4590f904e1c243c08bf7bba0c409a3872f1811666ad4048df2890d75a81525081608001516004815181106108b957fe5b602002602001018190525060405180604001604052807f246506f5049a37cc0a8f2262e96bef6cc25b944b7f5b31fbb47a4159ea03873481526020017f142b9820689cc8e47bb626ba5e43be664f623b20918a9bef51e51b3579e55b49815250816080015160058151811061092a57fe5b602002602001018190525060405180604001604052807f0ee6989d5e2ca6fb8e68dbcd8e0986eabdeb21e07e3da103d58ecd906191f0be81526020017f2e0d1d24096b4b031a9ae867ce64797a7b705a19f1dd1dc24d0abd9f0ee3d981815250816080015160068151811061099b57fe5b602002602001018190525060405180604001604052807f17d72449f6585097dd5c9fc72d721eabe7fb9985950ced746cadf7a4fee8904681526020017f2a11d37766db23373b69a53575508cefc5268ff6c4b97b9cd69852b924316a6d8152508160800151600781518110610a0c57fe5b602002602001018190525060405180604001604052807f1e212882c6ce7b59e1bab3c6f9827e174c8377ffd91cdf8d4a391019bbdb40d981526020017f0a4d886328e68b24b1e3433f630f5656bb19aa2802641b24247ac37d7aa669158152508160800151600881518110610a7d57fe5b602002602001018190525060405180604001604052807f051b83d7f75e38f8b55fa1fcd5959a18e61ae1de725bbadb1d9f216c8ce21f2781526020017f0769b749945a7af2bdb46f7cb7b064f26b55159db7279e533e08da9dd8e78b4c8152508160800151600981518110610aee57fe5b602002602001018190525090565b610b04611003565b610b0c61101d565b83518152602080850151908201526040810183905260006060836080848460076107d05a03f19050808015610b4057610b42565bfe5b5080610b4d57600080fd5b505092915050565b610b5d611003565b610b6561103b565b8351815260208085015181830152835160408301528301516060808301919091526000908360c0848460066107d05a03f19050808015610b4057610b42565b610bac611003565b81517f30644e72e131a029b85045b68181585d97816a916871ca8d3c208c16d87cfd4790158015610bdf57506020830151155b15610bff5750506040805180820190915260008082526020820152610c2b565b60405180604001604052808460000151815260200182856020015181610c2157fe5b0683038152509150505b919050565b60408051600480825260a0820190925260009160609190816020015b610c54611003565b815260200190600190039081610c4c57505060408051600480825260a0820190925291925060609190602082015b610c8a611059565b815260200190600190039081610c825790505090508a82600081518110610cad57fe5b60200260200101819052508882600181518110610cc657fe5b60200260200101819052508682600281518110610cdf57fe5b60200260200101819052508482600381518110610cf857fe5b60200260200101819052508981600081518110610d1157fe5b60200260200101819052508781600181518110610d2a57fe5b60200260200101819052508581600281518110610d4357fe5b60200260200101819052508381600381518110610d5c57fe5b6020026020010181905250610d718282610d80565b9b9a5050505050505050505050565b60008151835114610d9057600080fd5b8251604080516006830280825260c084028201602001909252606090828015610dc3578160200160208202803883390190505b50905060005b83811015610f4857868181518110610ddd57fe5b602002602001015160000151828260060260000181518110610dfb57fe5b602002602001018181525050868181518110610e1357fe5b602002602001015160200151828260060260010181518110610e3157fe5b602002602001018181525050858181518110610e4957fe5b602090810291909101015151518251839060026006850201908110610e6a57fe5b602002602001018181525050858181518110610e8257fe5b60209081029190910101515160016020020151828260060260030181518110610ea757fe5b602002602001018181525050858181518110610ebf57fe5b602002602001015160200151600060028110610ed757fe5b6020020151828260060260040181518110610eee57fe5b602002602001018181525050858181518110610f0657fe5b602002602001015160200151600160028110610f1e57fe5b6020020151828260060260050181518110610f3557fe5b6020908102919091010152600101610dc9565b50610f51611079565b60006020826020860260208601600060086107d05a03f19050808015610b40575080610f7c57600080fd5b505115159695505050505050565b6040518060600160405280610f9d611003565b8152602001610faa611059565b8152602001610fb7611003565b905290565b6040518060a00160405280610fcf611003565b8152602001610fdc611059565b8152602001610fe9611059565b8152602001610ff6611059565b8152602001606081525090565b604051806040016040528060008152602001600081525090565b60405180606001604052806003906020820280388339509192915050565b60405180608001604052806004906020820280388339509192915050565b604051806040016040528061106c611097565b8152602001610fb7611097565b60405180602001604052806001906020820280388339509192915050565b6040518060400160405280600290602082028038833950919291505056fe5472616e73616374696f6e207375636365737366756c6c792076657269666965642ea265627a7a72315820dbddf300d54383a7293fe5bacd37b31bcb94640edcda6befae40f80d559dde5564736f6c634300050e0032608060405234801561001057600080fd5b5060096000556102006001556105308061002b6000396000f3fe608060405234801561001057600080fd5b506004361061002b5760003560e01c80638e86465714610030575b600080fd5b61004361003e366004610361565b610059565b6040516100509190610444565b60405180910390f35b60006001548251111561006b57600080fd5b6060600154604051908082528060200260200182016040528015610099578160200160208202803883390190505b50905060005b83518110156100db578381815181106100b457fe5b60200260200101518282815181106100c857fe5b602090810291909101015260010161009f565b50606060005460010160405190808252806020026020018201604052801561011757816020015b60608152602001906001900390816101025790505b509050818160008151811061012857fe5b602090810291909101015260005b60005481101561017e5761015c82828151811061014f57fe5b60200260200101516101b2565b82826001018151811061016b57fe5b6020908102919091010152600101610136565b50806000548151811061018d57fe5b60200260200101516000815181106101a157fe5b602002602001015192505050919050565b6060600060028351816101c157fe5b049050806040519080825280602002602001820160405280156101ee578160200160208202803883390190505b50915060005b818110156102bf576000600285836002028151811061020f57fe5b602002602001015186846002026001018151811061022957fe5b602002602001015160405160200161024292919061040b565b60408051601f198184030181529082905261025c91610431565b602060405180830381855afa158015610279573d6000803e3d6000fd5b5050506040513d601f19601f8201168201806040525061029c919081019061039e565b9050808483815181106102ab57fe5b6020908102919091010152506001016101f4565b5050919050565b600082601f8301126102d757600080fd5b81356102ea6102e582610479565b610452565b9150818183526020840193506020810190508385602084028201111561030f57600080fd5b60005b8381101561033b57816103258882610345565b8452506020928301929190910190600101610312565b5050505092915050565b8035610350816104d6565b92915050565b8051610350816104d6565b60006020828403121561037357600080fd5b813567ffffffffffffffff81111561038a57600080fd5b610396848285016102c6565b949350505050565b6000602082840312156103b057600080fd5b60006103968484610356565b6103c5816104a3565b82525050565b6103c56103d7826104a3565b6104a3565b60006103e78261049a565b6103f1818561049e565b93506104018185602086016104a6565b9290920192915050565b600061041782856103cb565b60208201915061042782846103cb565b5060200192915050565b600061043d82846103dc565b9392505050565b6020810161035082846103bc565b60405181810167ffffffffffffffff8111828210171561047157600080fd5b604052919050565b600067ffffffffffffffff82111561049057600080fd5b5060209081020190565b5190565b919050565b90565b60005b838110156104c15781810151838201526020016104a9565b838111156104d0576000848401525b50505050565b6104df816104a3565b81146104ea57600080fd5b5056fea365627a7a72315820675824fabd468a87829da8cb8e9735db53ec17bfefa68ce10639ded9714140396c6578706572696d656e74616cf564736f6c634300050e0040",
    "sourcePath": "c:/Users/bstrasser/Documents/blockchain/DAO/solidity/contracts/VotingDirectory.sol",
    "compiler": {
        "name": "solc",
        "version": "0.5.14+commit.01f1aaa4"
    },
    "functionHashes": {
        "deployNewVotingProcedure(string,string,string[],bool)": "ca7387ea",
        "getLeaves()": "ad2b3037",
        "getMemberCount()": "997072f7",
        "getOpenVotingProcedures()": "d86b6ba0",
        "getVotingProcedures()": "9be6230c",
        "isMember()": "d02982cf",
        "isMember(address)": "a230c524",
        "isRegistered()": "22366844",
        "isRegistered(address)": "c3c5a547",
        "memberList(uint256)": "b307fc6d",
        "membershipStructs(address)": "3b04c0da",
        "merkleTree()": "bb7df052",
        "newMember(address)": "5cafbafb",
        "openVotingProcedures(uint256)": "8fa530bf",
        "relayRegistry()": "6b92d3bb",
        "removeMember(address)": "0b1ca49a",
        "setCommitment(bytes32)": "abe20032",
        "verifier()": "2b7ac3f3",
        "votingProcedures(uint256)": "d71cdfcf"
    },
    "gasEstimates": {
        "creation": {
            "codeDepositCost": "3238600",
            "executionCost": "infinite",
            "totalCost": "infinite"
        },
        "external": {
            "deployNewVotingProcedure(string,string,string[],bool)": "infinite",
            "getLeaves()": "infinite",
            "getMemberCount()": "1188",
            "getOpenVotingProcedures()": "infinite",
            "getVotingProcedures()": "infinite",
            "isMember()": "3848",
            "isMember(address)": "infinite",
            "isRegistered()": "2110",
            "isRegistered(address)": "infinite",
            "memberList(uint256)": "infinite",
            "membershipStructs(address)": "infinite",
            "merkleTree()": "infinite",
            "newMember(address)": "infinite",
            "openVotingProcedures(uint256)": "infinite",
            "relayRegistry()": "infinite",
            "removeMember(address)": "infinite",
            "setCommitment(bytes32)": "infinite",
            "verifier()": "infinite",
            "votingProcedures(uint256)": "infinite"
        }
    }
}